S01D000053455249414C5F434E54524C5F4C45445F554152542E7372656396
S11300000C9434000C9449000C9449000C9449005D
S11300100C9449000C9449000C9449000C94490038
S11300200C9449000C9449000C9449000C94490028
S11300300C9449000C9449000C9449000C94490018
S11300400C9449000C9449000C9449000C94490008
S11300500C9449000C9449000C9449000C944900F8
S11300600C9449000C94490011241FBECFEFD8E032
S1130070DEBFCDBF11E0A0E0B1E0EAECF2E002C0E7
S113008005900D92AA36B107D9F70E948D000C9401
S113009063010C9400009093C5008093C40088E130
S11300A08093C10086E08093C20008959091C000BF
S11300B095FFFCCF8093C6000895CF93DF93EC01A6
S11300C003C021960E94560088818111FACFDF91E6
S11300D0CF9108958091C0008823E4F78091C600F1
S11300E008958AB180648AB984B5836084BD85B576
S11300F0836085BD84B5806884BD17BC0895811173
S113010007C084B58F7784BD8BB18F7B8BB908957D
S113011094B5906894BD87BD0895CF93DF93CDB710
S1130120DEB72A970FB6F894DEBF0FBECDBF87E6C1
S113013090E00E944B000E94710080E091E00E94D8
S11301405D0010E001C010E00E946A008D3019F0DB
S11301508A3009F055C0E1E0F0E0EC0FFD1FE10F3B
S1130160F11D108269E171E0CE0101960E945201F5
S1130170892B49F48FEF0E947F008CE191E00E946B
S11301805D0010E0E1CF6CE271E0CE0101960E94C7
S11301905201892B49F480E00E947F0080E391E0C2
S11301A00E945D0010E0D0CF8981882361F2CE01E6
S11301B001960E94340185369105E0F44FEF489F83
S11301C09001499F300D1124C90164E670E00E943A
S11301D00C01862F0E947F0081E491E00E945D0063
S11301E0CE0101960E945D0084E591E00E945D00CD
S11301F010E0AACF88E591E00E945D0010E0A4CF52
S1130200193008F0A1CFE1E0F0E0EC0FFD1FE10FA1
S1130210F11D80831F5F98CF97FB072E16F400947F
S113022007D077FD09D00E94200107FC05D03EF4D9
S1130230909581959F4F0895709561957F4F08958E
S1130240AA1BBB1B51E107C0AA1FBB1FA617B707F8
S113025010F0A61BB70B881F991F5A95A9F7809514
S11302609095BC01CD010895FC0188279927E89455
S113027021912032E9F3293010F02E30C8F32B32CB
S113028041F02D3239F4689404C00E945B01820F5E
S1130290911D219120532A30C0F31EF4909581952D
S11302A09F4F0895FB01DC018D910190801901108D
S11302B0D9F3990B08957AE0979F902D879F802D0D
S10D02C0910D11240895F894FFCF66
S11302CA55415254204C454420436F6E74726F6CEE
S11302DA2052656164790D0A004F4E004C45442052
S11302EA6973206E6F77204F4E0D0A004F46460001
S11302FA4C4544206973206E6F77204F46460D0A99
S113030A004272696768746E65737320736574203A
S113031A746F2000250D0A00496E76616C696420A9
S10D032A436F6D6D616E640D0A00EF
S9030000FC
